{
  "_format": "hh-sol-artifact-1",
  "contractName": "lottery",
  "sourceName": "contracts/lottery.sol",
  "abi": [
    {
      "inputs": [],
      "stateMutability": "nonpayable",
      "type": "constructor"
    },
    {
      "inputs": [],
      "name": "addFund",
      "outputs": [],
      "stateMutability": "payable",
      "type": "function"
    },
    {
      "inputs": [
        {
          "internalType": "uint256",
          "name": "",
          "type": "uint256"
        }
      ],
      "name": "funderslist",
      "outputs": [
        {
          "internalType": "address",
          "name": "",
          "type": "address"
        }
      ],
      "stateMutability": "view",
      "type": "function"
    },
    {
      "inputs": [],
      "name": "withdraw",
      "outputs": [],
      "stateMutability": "payable",
      "type": "function"
    }
  ],
  "bytecode": "0x608060405234801561001057600080fd5b5033600260006101000a81548173ffffffffffffffffffffffffffffffffffffffff021916908373ffffffffffffffffffffffffffffffffffffffff160217905550610568806100616000396000f3fe6080604052600436106100345760003560e01c80633ccfd60b14610039578063a2f09dfa14610043578063e873fee41461004d575b600080fd5b61004161008a565b005b61004b6101eb565b005b34801561005957600080fd5b50610074600480360381019061006f91906102e8565b610294565b60405161008191906103c5565b60405180910390f35b3373ffffffffffffffffffffffffffffffffffffffff16600260009054906101000a900473ffffffffffffffffffffffffffffffffffffffff1673ffffffffffffffffffffffffffffffffffffffff161461011a576040517f08c379a0000000000000000000000000000000000000000000000000000000008152600401610111906103e0565b60405180910390fd5b6000600260009054906101000a900473ffffffffffffffffffffffffffffffffffffffff1673ffffffffffffffffffffffffffffffffffffffff1647604051610162906103b0565b60006040518083038185875af1925050503d806000811461019f576040519150601f19603f3d011682016040523d82523d6000602084013e6101a4565b606091505b50509050806101e8576040517f08c379a00000000000000000000000000000000000000000000000000000000081526004016101df90610400565b60405180910390fd5b50565b600054341161022f576040517f08c379a000000000000000000000000000000000000000000000000000000000815260040161022690610420565b60405180910390fd5b6001339080600181540180825580915050600190039060005260206000200160009091909190916101000a81548173ffffffffffffffffffffffffffffffffffffffff021916908373ffffffffffffffffffffffffffffffffffffffff160217905550565b600181815481106102a457600080fd5b906000526020600020016000915054906101000a900473ffffffffffffffffffffffffffffffffffffffff1681565b6000813590506102e28161051b565b92915050565b6000602082840312156102fe576102fd610498565b5b600061030c848285016102d3565b91505092915050565b61031e8161045c565b82525050565b600061033160158361044b565b915061033c8261049d565b602082019050919050565b6000610354600083610440565b915061035f826104c6565b600082019050919050565b6000610377600e8361044b565b9150610382826104c9565b602082019050919050565b600061039a600e8361044b565b91506103a5826104f2565b602082019050919050565b60006103bb82610347565b9150819050919050565b60006020820190506103da6000830184610315565b92915050565b600060208201905081810360008301526103f981610324565b9050919050565b600060208201905081810360008301526104198161036a565b9050919050565b600060208201905081810360008301526104398161038d565b9050919050565b600081905092915050565b600082825260208201905092915050565b60006104678261046e565b9050919050565b600073ffffffffffffffffffffffffffffffffffffffff82169050919050565b6000819050919050565b600080fd5b7f796f7520617265206e6f7420746865206f776e65720000000000000000000000600082015250565b50565b7f4e6f7420746865206f776e657221000000000000000000000000000000000000600082015250565b7f4e6f7420656e6f75676820457468000000000000000000000000000000000000600082015250565b6105248161048e565b811461052f57600080fd5b5056fea2646970667358221220f2cbf8f45b3ee2c1fd3b6748583800e99ea36aaa5da08e37663b9e021a38b8df64736f6c63430008070033",
  "linkReferences": {},
  "deployedLinkReferences": {}
}